:0A40B90075A70F75A603E4F5A72212
:0340C3000240B9FF
:104094008F0B8E0A8D098C08780874FF124076EC19
:0640A4004D4E4F70F322A7
:104053001240C363A0FFE4FBFA7F887E137D007CDC
:10406300001240940BBB00010AEB64324A70EA80F1
:01407300E26A
:10400300E590540C23C0E07441C0E0C082C0830239
:104013004100E590540C23C0E07441C0E0C082C06D
:1040230083024108E590540C23C0E07441C0E0C012
:1040330082C083024110E590540C23C0E07441C058
:08404300E0C082C083024118B5
:044100005390F322C3
:0741080043900C5390F722D5
:0741100043900C5390FB22C9
:0441180043900C22A2
:07404B00EFC4039041007374
:034000000240AAD1
:0F40AA0053D9BF787FE4F6D8FD75810B024053E0
:047FF000214878921A
:104074007401FF3395E0FEFDFC080808E6CF2FF637
:1040840018E6CE3EF618E6CD3DF618E6CC3CF62210
:00000001FF
