:034000000242EF8A
:0F42EF0053D9BF787FE4F6D8FD75810E02436185
:0A434D0075A70F75A603E4F5A7227B
:0343690002434DBF
:0B434200EF1FAC0670011E4C70F6224D
:08436100124369E4F5A080FBA2
:047FF000214878921A
:10420900E590540C23C0E07443C0E0C082C083022F
:104219004300E590540C23C0E07443C0E0C082C061
:1042290083024308E590540C23C0E07443C0E0C006
:1042390082C083024310E590540C23C0E07443C04C
:08424900E0C082C083024318AB
:044300005390F322C1
:0743080043900C5390F722D3
:0743100043900C5390FB22C7
:0443180043900C22A0
:07425100EFC403904300736A
:1042A700E4F5A753D9BF75FF80900023F090002352
:1042B700E004F0E0B4FFF612435712431C124336F2
:0542C700124198D2AF86
:0142CC0022CF
:0A43570075A70F75A1C7E4F5A722B2
:10431C0075A70F75A47475A60B75D40375E1067596
:0A432C00C740E4F5A7C2A0D2A12209
:0C43360075A70F438805D2AAE4F5A72262
:10419800E4FB900000124276000000009000041238
:1041A800427600000000E4900008F0EB75F00DA4E2
:1041B8002409F582E43400F583E4F0EB75F00DA4EE
:1041C800240AF582E43400F58312427600000000E8
:1041D800EB75F00DA4240EF582E43400F583124249
:1041E8007600000000EB75F00DA42412F582E4348B
:1041F80000F583124276000000000BBB02AD0242BC
:01420800CDE8
:1042CD00900024E5A7F0E4F5A7F5C8538E9F75CBB4
:1042DD00F875CA3074FFF5CDF5CCD2ADD2CAE0F584
:0142ED00A729
:0142EE0022AD
:064003008F0C8C0D8D0EE8
:10400900E4900025F0900000E0FCA3E0FDA3E0FEB1
:10401900A3E0FFE50C75F00DA4240EF582E434004D
:10402900F58312426AAE0DAF0EE4FCFDE50C75F0A6
:104039000DA4240AF582E43400F58312426AE50CE2
:1040490075F00DA42409F582E43400F5837401F0B8
:10405900E50C75F00DA4240AF582E43400F583E03B
:10406900FCA3E0FDA3E0FEA3E0FFE50C75F00DA4C1
:10407900240EF582E43400F583E0F8A3E0F9A3E027
:10408900FAA3E02FFFEA3EFEE93DFDE83CFCE50C22
:1040990075F00DA42412F582E43400F58312426A06
:1040A900900008E0704EE50C75F00DA42412F5821D
:1040B900E43400F583E0FCA3E0FDA3E0FEA3E0FF08
:1040C900900004E0F8A3E0F9A3E0FAA3E0FBD3121F
:1040D90042595020E50C75F00DA42412F582E43400
:1040E90000F583E0FCA3E0FDA3E0FEA3E0FF900060
:0440F9000412426A01
:0140FD0022A0
:0240FE008F0829
:10410000E4F509F50AF50B900000E0FCA3E0FDA33F
:10411000E0FEA3E0FFE50875F00DA4240EF582E4AF
:104120003400F58312426AE50875F00DA42409F500
:1041300082E43400F583E06401705AE50875F00DFF
:10414000A42412F582E43400F583E0FCA3E0FDA38F
:10415000E0FEA3E0FFE50875F00DA4240EF582E46F
:104160003400F583E0F8A3E0F9A3E0FAA3E0FBC391
:104170001242594020E50875F00DA4240AF582E4A6
:104180003400F583A3A3E0FEA3E0FDAC06AF081264
:074190004003750901AF09AE
:014197002205
:10425900EB9FF5F0EA9E42F0E99D42F0E89C45F0BB
:014269002232
:0C426A00ECF0A3EDF0A3EEF0A3EFF022C7
:10427600A8828583F0D083D08212428D12428D129D
:10428600428D12428DE473E493A3C583C5F0C583C2
:10429600C8C582C8F0A3C583C5F0C583C8C582C892
:0142A60022F5
:00000001FF
